:100000000C9433050C947A050C947A050C947A05BB
:100010000C947A050C947A050C947A050C947A0564
:100020000C947A050C947A050C94FC220C94CE2343
:100030000C94CF190C947A050C947A050C947A05DB
:100040000C947A050C947A050C947A050C947A0534
:100050000C947A050C941C1A0C947A050C947A056D
:100060000C947A050C947A050C947A050C947A0514
:100070000C947A050C947A050C947A050C947A0504
:100080000C947A050C947A050C947A050C947A05F4
:100090000C947A050C947A050C947A050C947A05E4
:1000A0000C947A050C947A050C947A05080F080FC5
:1000B0003A0F3A0F870FA50FFD10FD10E70F7C10C8
:1000C0008D108D10ED10FD10FD10F6109D119D117D
:1000D000AF11AF11A611AF11AF11AF119D119D114D
:1000E000AB11AF11AF11AB113B2462245A2562242E
:1000F0005A25AE24D1245A2528253725165C1E0002
:100100001F002000210022002300240025002600DB
:1001100027002A002B0014001A0008001500170001
:100120001C0018000C00120013004C0039000400E1
:100130001600070009000A000B000D000E000F005A
:1001400033003400E1001D001B000600190005000B
:1001500011001000360037003800D95CE0000B5D5C
:10016000E300E200095D2C002C000A5D5000510004
:1001700052004F0035021E021F02200221022202FD
:10018000230224022502260227022A0035021E022B
:100190001F0220022102220223022402250226023B
:1001A00027024C004C003A003B003C003D003E0062
:1001B0003F002D022E022F023002310201004000CA
:1001C0004100420043004400450032026402010045
:1001D0000100010001000100010001000100010017
:1001E00001000100BC00AE00A800BB0035001E00ED
:1001F0001F002000210022002300240025002600EB
:1002000027002A0035001E001F00200021002200C8
:10021000230024002500260027004C004C003A0053
:100220003B003C003D003E003F002D002E002F0013
:100230003000310001004000410042004300440012
:1002400045003200640001000100010001000100CE
:10025000010001000100010001000100BC00AE002E
:10026000A800BB000000000000000000000000002B
:10027000000000000000000000000000000000007E
:10028000000000000000000000000000000000006E
:10029000000000000000000000000000000000005E
:1002A000000000000000000000000000000000004E
:100870000000000000000000000000003A003B0003
:100880003C003D003E003F0040004100420043006C
:10089000440045000100005C010001000100145CFF
:1008A0000100010001000100010001000100010040
:1008B0000100010001000100010001000100010030
:1008C0000100010001000100010001000100010020
:1008D0000100010001000100010001000100010010
:1008E0000100010001000100010001000100010000
:1008F00001000100040330000000100350007200EA
:1009000065006F006E006900630000000A034E007E
:10091000650069006C0000000403090409023B0043
:10092000020100A0FA0904000001030101000921ED
:10093000110100012240000705810308000A090493
:100940000100010300000009211101000122BC0087
:100950000705820320000A1201100100000008EDC3
:10096000FE606001000102030105010902A1018589
:10097000020901A1000509190129051500250195A4
:100980000575018102950175038101050109300991
:10099000311581257F950275088106093815812555
:1009A0007F950175088106050C0A38021581257F9F
:1009B000950175088106C0C005010980A101850364
:1009C00019012AB700150126B7009501751081009D
:1009D000C0050C0901A101850419012AA002150115
:1009E00026A002950175108100C005010906A1012C
:1009F0008505050719E029E715002501950875010A
:100A000081020507190029EF1500250195F07501F0
:100A100081020508190129059505750191029501C5
:100A200075039101C005010906A101050719E02917
:100A3000E71500250195087501810295017508816A
:100A4000010507190029FF150026FF009506750806
:100A50008100050819012905950575019102950187
:100A600075039101C00011241FBECFEFDAE0DEBF95
:100A7000CDBF04B603FE27C080918A0290918B02FD
:100A8000A0918C02B0918D028730904BA740B04B63
:100A9000D1F410928A0210928B0210928C02109262
:100AA0008D0214BE84B7877F84BF0FB6F894A895D3
:100AB00080916000886180936000109260000FBE9A
:100AC000E0E0F8E3099511E0A0E0B1E0E0E0FCE44B
:100AD00002C005900D92A838B107D9F722E0A8E826
:100AE000B1E001C01D92AA38B207E1F70E942B20A5
:100AF0000C94FE250C940000CF93DF93EC010E9430
:100B00002018BE0180E090E0DF91CF910C94811518
:100B1000CF93FB0189302DE59207A9F020F48830AE
:100B20009D4549F032C08A302DE5920779F08B302F
:100B30009D4501F12AC0C281CC2341F181E090E0C2
:100B40000E947C051DC0C28181E002C0C28182E09A
:100B5000CC2341F00E94E11540E162E081E00E9477
:100B60006B060EC00E94021640E162E081E00E9426
:100B70006B060CC0C28180E1CC2321F00E94E115FC
:100B8000C0E004C00E94021601C0C1E08C2FCF91CA
:100B9000089581E008950C94880508950C94CD057E
:100BA0001F93CF93DF9300D000D01F92CDB7DEB755
:100BB00049835A836B833091A00189819A813111D5
:100BC00014C0662359F0222349F00E94D616182F2C
:100BD000682F89819A810E947F1603C00E94AA16FD
:100BE000182F69817A81812F04C00E94D6166981ED
:100BF0007A810F900F900F900F900F90DF91CF910F
:100C00001F910C94E806FC01262F408151816281DE
:100C1000738184810C94D005CF93DF93EC0160E065
:100C20000E940306BE01DF91CF910C94CE058F92F6
:100C30009F92AF92BF92CF92DF92EF92FF920F936B
:100C40001F936B017C0181E090E0A0E0B0E04C01DB
:100C50005D0104C0880C991CAA1CBB1C4A95D2F7E4
:100C6000AC01BD0104C0440F551F661F771F2A95B4
:100C7000D2F7482959296A297B2904C0880F991F6E
:100C8000AA1FBB1F0A95D2F78A019B010C211D21C7
:100C90002E213F21401751076207730739F4BC0129
:100CA000CD016C297D298E299F290AC080959095B8
:100CB000A095B095BC01CD016C217D218E219F2195
:100CC0001F910F91FF90EF90DF90CF90BF90AF906A
:100CD0009F908F9008950F93382F262F60910102D7
:100CE000709102028091030290910402042F432F1D
:100CF0000E9417060F910C94BB150E9408188111D1
:100D000002C00E94B2180C9407090C9403090895BC
:100D10000C94870681E008950C948A06CF93C82F1F
:100D20000E9488068C2F0E948C06CF91089508950A
:100D30000E948B110E9497062FEF84E39CE02150C4
:100D400080409040E1F700C000000C94421A0F93DD
:100D50001F93CF93DF93EC0161E00E9403068C01A7
:100D6000BE010E94CB05882349F1BE01C8010E9443
:100D7000970A882319F1BE01C8010E94D80A882366
:100D8000E9F0BE01C8010E94030C8823B9F08A81F2
:100D9000882369F001158CE5180731F00E3D1C45DC
:100DA00031F40E94B2180AC00E94980607C0CE0112
:100DB000DF91CF911F910F910C94C90580E0DF91D5
:100DC000CF911F910F91089580E090E008950895CC
:100DD0002CE3829FC0011124FC012CE0729FE00DE6
:100DE000F11D1124E60FF11DEE0FFF1FE450FF4F20
:100DF000859194910895880F991FFC01EC50F74F4D
:100E0000859194910895CF93DF930E94E8060E9404
:100E10001B08EC018115904508F041C0C11580E424
:100E2000D80708F0D1C0C83ED10510F5C03ED105A5
:100E300008F0FDC0C83AD10578F4C53AD10508F0EC
:100E4000A2C0C130D10509F4F2C008F4EEC0C4302C
:100E5000D10508F0ECC0E9C0CF3BD10508F49BC038
:100E6000C03CD10508F4E1C0CE01805C91099EC070
:100E7000C11590E2D90758F4C11521E0D20708F056
:100E8000D6C0C03FD10508F4D0C0D065D0C0C115D0
:100E900080E3D80708F08EC0CE019F7087C0C115CF
:100EA00095E5D90708F043C0C11524E5D20708F03D
:100EB000A2C0C11582E5D80708F5C11591E5D9078B
:100EC00008F085C0CE0174E0969587957A95E1F794
:100ED00083709C2F937021E030E002C0220F331FFB
:100EE0009A95E2F73C68382BCF70C695C69580E29C
:100EF000C89FE0011124C22BD32B99C09E012370FF
:100F000033278C2F86958695C115D34508F064C08C
:100F1000C1E0D0E002C0CC0FDD1F2A95E2F720E24D
:100F2000829FC0011124C82BD92BDC6880C0C11559
:100F300029E5D207A0F4C11588E5D80708F060C0FC
:100F4000C11596E5D90708F070C08C2F0E94AF0834
:100F50008F71C82FD0E0DC2FCC27D06268C0C115BC
:100F60002AE5D20708F451C0CE019056811590426F
:100F700008F05BC08D2F8F710E94AF08DD27D06213
:100F80008F71D82B54C0C55AD0E0CD5BDE4FC881DD
:100F9000D0E0D0644CC0C85AD0E0CC0FDD1FCB5E8F
:100FA000DE4F0990D881C02DD46441C00E94FB0659
:100FB000EC013DC0CE019927D3FF03C0EC01D86CF2
:100FC00036C0EC01D06C33C0DF70D06A30C0DC2F8B
:100FD000CC27C16FD06A2BC0C1E0D0E002C0CC0FDB
:100FE000DD1F2A95E2F720E2829FC0011124C82B61
:100FF000D92BDA681CC0DC2FCC27C46FD06A17C08D
:10100000DC2FCC27C06FD06A12C08C2F8F700E944B
:10101000AF0894E0D695C7959A95E1F7CF70D0E0E8
:10102000DC2FCC27D069C82B02C0C0E0D0E0CE01B5
:10103000DF91CF9108958238910569F1B0F4813341
:10104000910509F46DC048F48932910509F463C033
:101050008A32910509F469C008958533910509F430
:1010600055C089339105B9F00895833E910569F122
:1010700038F4803E9105B1F0823E910509F1089562
:10108000863E9105A9F1873E9105B9F1843E91050F
:1010900009F064C023C020917B0220FD4FC021FDD8
:1010A0004DC0089580917B0280FD44C080917C02F8
:1010B00080FF44C080917B0284FD42C083EE4DC01E
:1010C00080917B0282FF38C0F5CF80917B0282FD48
:1010D00033C080917C0280FD31C0ECCF80917C02D6
:1010E00081FF32C080917B0284FD2AC087EE35C02B
:1010F00080917B0283FF26C0F5CF80917B0283FD28
:1011000021C080917C0281FD1FC0ECCF80917B02C9
:1011100085FD1CC01DC080917B0285FD19C016C0D5
:1011200080917B0286FD16C017C080917B0286FDF0
:1011300013C010C089E311C082EE0FC080EE0DC055
:1011400080E00BC086EE09C084EE07C089E205C0CE
:1011500085E303C08AE201C081E390E008959091A5
:101160007B0292FF0DC0282F2871283019F4877F49
:10117000846006C0282F2471243011F48B7F88608E
:1011800093FF0DC0282F2871283119F4877E8461C0
:1011900006C0282F2471243111F48B7E88612091A0
:1011A0007C0220FF0DC0382F3871383019F4877F4A
:1011B000816006C0382F3171313011F48E7F886024
:1011C00021FF0DC0282F2871283119F4877E8161F5
:1011D00006C0282F2171213111F48E7E886194FD83
:1011E000877E0895E82FF0E0EE0FFF1FE559FD4FD1
:1011F000808191810895089580EA8A95F1F7089594
:1012000008950C9400090C9401090C9400090C94A5
:101210000509CF93DF93A2E5B1E047E551E061E036
:1012200070E08D91E82FE295EF70F0E021A18F70D2
:10123000EB0102C0CC0FDD1F8A95E2F7CE019C2F97
:101240009095922391A392A1892B82A34A175B07C1
:1012500041F7A6E4B1E042E551E061E070E08D9134
:10126000E82FE295EF70F0E021A18F70EB0102C052
:10127000CC0FDD1F8A95E2F7CE019C2F909592232B
:1012800091A392A1892B82A34A175B0741F7E1E65C
:10129000F2E0ABE6B2E08BE692E0119211921D9281
:1012A0001D928E179F07C9F785E00E94E809DF911C
:1012B000CF910C947D066F927F928F929F92AF9206
:1012C000BF92CF92DF92EF92FF920F931F93CF9333
:1012D000DF9382E5C82E81E0D82E01E612E09BE67E
:1012E000A92E92E0B92E712C88248394912CF601BA
:1012F00081916F01C82FC295CF70D0E099A18F70F6
:10130000740101C0EE0C8A95EAF7892F8E2989A312
:101310008AA16E2C609486218AA30E94FC08E6E4D0
:10132000F1E040E050E020E030E06191A62FA2958E
:10133000AF70B0E090968C9190E06F7002C0959580
:1013400087956A95E2F780FD08C0C401042E02C0AB
:10135000880F991F0A94E2F702C080E090E0282BE2
:10136000392B4F5F5F4F4C305105F9F689A1682248
:1013700069A28AA1E82AEAA2F8018081918128174E
:10138000390721F03183208381E001C080E0782A91
:101390000E5F1F4FA016B10609F0A9CF272D45E01B
:1013A0006BE672E081E692E00E94E9090E94850600
:1013B000872DDF91CF911F910F91FF90EF90DF90DC
:1013C000CF90BF90AF909F908F907F906F90089537
:1013D0000895FF920F931F93CF93DF93F82E092F59
:1013E000162FD72FC42F222349F081E080938A0142
:1013F0000E94011A909389018093880180918A014B
:101400008823D9F080918801909189010E940D1A5A
:10141000069798F0EF2DF02FA12FBD2F80E090E0E0
:101420004C2F50E08417950734F4219131912D937E
:101430003D930196F7CF10928A01DF91CF911F91D2
:101440000F91FF9008950F931F93CF93DF93C62FB3
:10145000D42F122FFC0182818823C9F060938D0163
:101460000E94011A90938C0180938B0180E28C0F73
:10147000883008F057C0C77081E001C0880FCA9556
:10148000EAF7DF91CF911F910F910C94C40E8091D8
:101490008D01681330C080918B0190918C010E9466
:1014A0000D1A883C910538F500E20D0FCD17B9F003
:1014B00080E28C0F883040F4C77081E001C0880F53
:1014C000CA95EAF70E94CB0E083028F581E09D2FDF
:1014D000977001C0880F9A95EAF70E94C40E812F79
:1014E0000E94B10E0830F0F4D77081E001C0880F7F
:1014F000DA95EAF70AC080E28C0F883098F4C7705A
:1015000081E001C0880FCA95EAF7DF91CF911F9162
:101510000F910C94CB0E812FDF91CF911F910F91E2
:101520000C94B10EDF91CF911F910F9108959C0102
:10153000CB01233F4CE53407F9F078F4283DFCE576
:101540003F07B9F0293D4CE5340711F1273D3C45F3
:1015500031F526E241EE61EE1EC0253FFCE53F0776
:1015600099F070F0263F3C45D1F427E245EE66EE57
:1015700012C027E245EE0EC026E241EE60EE0BC03F
:1015800027E245EE64EE07C026E241EE62EE03C0BC
:1015900028E241E065EE0E94230A80E00895FC0104
:1015A0008281882319F010928D01089581E00895B9
:1015B000CF93DF93EC01FB018281882309F41FC1E3
:1015C000C230FCE5DF0708F41BC1C6319CE5D90732
:1015D00038F09E012A5F3C452930310508F010C1E2
:1015E0000E94251890937C0280937B02C031ECE529
:1015F000DE0709F4C3C008F041C0C8308CE5D80745
:1016000009F49AC0F0F4C430ECE5DE0709F487C0B1
:1016100068F4C2308CE5D80709F477C0C330DC45E4
:1016200009F0E3C080917B02826076C0C630ECE5B1
:10163000DE0709F46EC008F07BC080917B028860F1
:101640006BC0CC308CE5D80709F485C068F4CA308B
:10165000ECE5DE0709F474C008F079C00E948B1134
:1016600080917B02806858C0CE308CE5D80709F4A1
:1016700076C008F07FC080917B028BC0CB3FECE549
:10168000DE0709F44FC018F5C3318CE5D80709F41B
:101690007DC078F4C131ECE5DE0709F473C0C231D6
:1016A000DC4509F0A2C00E948B1180917B028F77EC
:1016B00033C0C5318CE5D80709F472C008F486C080
:1016C000CA3FDC4509F091C080917C023EC0CF3F0B
:1016D000FCE5DF0709F45FC058F4CD3F9CE5D9076E
:1016E00009F444C008F43FC080917C0282602DC0A0
:1016F000C130FDE5DF0709F475C008F45DC0C230F4
:10170000DD4509F072C080E06EC080917B0281608F
:1017100003C080917B02806180937B0266C08091D0
:101720007B0211C080917C02826080937C025DC04C
:1017300080917B028062F0CF80917B028064ECCF4D
:1017400080917B0288608460E7CF8160EECF8091DA
:101750007B028E7FE1CF80917B028D7FDDCF8091F8
:101760007B02877FD9CF80917C0218C080917C0258
:101770008D7FDBCF80917B028F7ECECF80917B02ED
:101780008F7DCACF80917B028F7BC6CF80917B02F9
:10179000877F8B7FC1CF80917C028D7F8E7FC5CF6D
:1017A00080917B0282FB222720F991E0922790FB17
:1017B00082F990FB83F9B0CF80917C02982F9095AD
:1017C00091708E7F892B90FB81F9AFCF0E948B1196
:1017D00080917B0287FB222720F991E0922790FBE2
:1017E00087F99ACF81E00E94B41880917B02909192
:1017F0007C020E9436180E948B1180E001C081E0BB
:10180000DF91CF910895CF93DF9386319C4541F5C9
:10181000EB010E945717982F8A8120910001309187
:101820000101882379F09A7A81E009F480E08093BD
:101830008E01911102C069E201C065E3C9010E94F5
:101840004F190AC080918E01811102C069E201C066
:1018500065E3C9010E945A190E94A51780E001C0E2
:1018600081E0DF91CF91089590939401809393014B
:101870000895E0919301F0919401309721F0019047
:10188000F081E02D099480E00895E0919301F091BA
:101890009401309799F020911401222359F020915E
:1018A0007B0227FF07C0DC012C9111962C93119726
:1018B00025E02C930280F381E02D09940895E091B6
:1018C0009301F0919401309739F022E0DC012C93E0
:1018D0000480F581E02D09940895209191013091C3
:1018E00092012817390771F090939201809391012A
:1018F000E0919301F0919401309721F00680F781F7
:10190000E02D0994089520918F01309190012817BE
:10191000390771F09093900180938F01E0919301CA
:10192000F0919401309721F00084F185E02D099425
:10193000089585B7806885BF85B7806885BF08959D
:1019400008950C94A00C0C94A10C0C94A00C0C9475
:10195000A00C0E94990C0E94A50C0C94A30C81E091
:1019600008950C94AF0C0E94F8190E9409090E9476
:10197000B21A0C94A70C7F928F929F92AF92BF9253
:10198000CF92DF92EF92FF920F931F93CF93DF934B
:10199000CDB7DEB72A970FB6F894DEBF0FBECDBF26
:1019A0000E945B090E94B10C811111C08FEF8983E5
:1019B0008A831B820E94011A8160782F9D838C8309
:1019C00049815A816B818D810E946B0D4FC046E920
:1019D000A42E41E0B42E00E010E0702E802F0E9473
:1019E000F2086C01F501819091905F01882699269B
:1019F0008114910431F40F5F1F4F0530110569F711
:101A0000D5CF80912E0281FD0E94FB0880E0EE245C
:101A1000E394F12C94012E213F21232B09F18E8395
:101A20007F82CE20DF2081E0CD2809F480E0888706
:101A30000E94011A8160782F9A8789874E815F8181
:101A400068858A850E946B0D000F111FF801EA5608
:101A5000FE4F80819181E826F926F182E08206C05E
:101A60008F5FEE0CFF1C8C30A9F6C5CF0E94661D5F
:101A70000E94390C909195018917C9F00E94390C88
:101A8000809395012A960FB6F894DEBF0FBECDBFA6
:101A9000DF91CF911F910F91FF90EF90DF90CF904A
:101AA000BF90AF909F908F907F900C948E062A9657
:101AB0000FB6F894DEBF0FBECDBFDF91CF911F915F
:101AC0000F91FF90EF90DF90CF90BF90AF909F90DD
:101AD0008F907F900895CF93DF93CDB7DEB72B978C
:101AE0000FB6F894DEBF0FBECDBF4F83588769870E
:101AF0007A878B87DE01119686E0FD0111928A9527
:101B0000E9F785E0FE01379601900D928A95E1F79D
:101B100049815A816B817C818D819E810E94441410
:101B20002B960FB6F894DEBF0FBECDBFDF91CF91DD
:101B30000895FC01808191810E9418170895CF9328
:101B4000882309F4A4C0C82F8238C1F40E94390C3C
:101B500081FD9DC069E380910001909101010E9487
:101B60004F190E94A5172FEF81EE94E0215080407D
:101B70009040E1F700C0000069E319C0833801F527
:101B80000E94390C80FD83C063E580910001909133
:101B900001010E944F190E94A5172FEF81EE94E0DA
:101BA000215080409040E1F700C0000063E5809143
:101BB0000001909101010E945A19CF910C94A51730
:101BC0008438C1F40E94390C82FD61C067E48091C1
:101BD0000001909101010E944F190E94A5172FEF5B
:101BE00081EE94E0215080409040E1F700C0000079
:101BF00067E4DDCF8CEF8C0F813AD0F46C2F8091AD
:101C00000001909101010E94CF18882349F06C2FA8
:101C100080910001909101010E945A190E94A5171C
:101C20006C2F80910001909101010E944F19C5CF46
:101C300080E28C0F883048F4C77081E001C0880FC3
:101C4000CA95EAF70E945A17B8CFEBE5EC0FE330DC
:101C500040F4F0E0EB57FE4F808190E0CF910C9480
:101C60006D0CE8E5EC0FE73150F4F0E0EE0FFF1FEC
:101C7000E95AFE4F80819181CF910C94830CC03F33
:101C800030F08C2F0E946E1CCF910C945B1DCF9175
:101C90000895882309F464C0823879F40E94390CCD
:101CA00081FF5EC069E380910001909101010E9473
:101CB0004F190E94A51769E310C08338B1F40E9440
:101CC000390C80FF4DC063E58091000190910101C6
:101CD0000E944F190E94A51763E580910001909121
:101CE00001010E945A190C94A517843879F40E94B6
:101CF000390C82FF35C067E48091000190910101A9
:101D00000E944F190E94A51767E4E7CF9CEF980F38
:101D1000913A10F4682FE1CF90E2980F983050F488
:101D2000877091E001C0990F8A95EAF7892F0E9488
:101D30006017D9CF9BE5980F933020F480E090E0B6
:101D40000C946D0C98E5980F973120F480E090E0AA
:101D50000C94830C803F20F00E94D61C0C945B1DD9
:101D60000895CF93C82F0E949F0DC93349F42FEFD8
:101D700087EE93E0215080409040E1F700C00000E2
:101D80008C2FCF910C94490E882321F00E945A1772
:101D90000C94A5170895882321F00E9460170C94D5
:101DA000A5170895CF92DF92EF92FF920F931F93A2
:101DB000CF93DF937C01062FC72FFC01158112956D
:101DC0001F70D281D1110E9477170E94501788236B
:101DD00099F0DD2389F08C2F807F803421F080E220
:101DE000800F883048F082E00E94EF170E94501761
:101DF00091E0D82ED92601C0D12CCC2EC2948FE0F0
:101E0000C8228C2D90E0FC01EA5AFF4F0C94A225C9
:101E10008C2F807FCF70882311F0C295C07FDD2387
:101E200099F0CC2309F4C4C180E2800F883010F00F
:101E3000011104C08C2F0E945A1703C08C2F0E94DE
:101E40006A170E94A517B4C1802F0E94490ECC23A7
:101E500009F4D3C180E2800F883010F0011104C072
:101E60008C2F0E94601703C08C2F0E9470170E9455
:101E7000A517C3C18C2F807FCF70803211F0C2951F
:101E8000C07F002319F00130C9F022C0DD2371F0BA
:101E9000112341F0113031F40E948A178C2B0E94DB
:101EA0009217ABC10E948A178C2B1DC0112319F009
:101EB000113009F4A2C10E949B1725C0DD2321F037
:101EC000163008F09AC10EC0153008F096C11BC03C
:101ED000DD2361F0112331F0F701858180FF68C1B6
:101EE0008F7085838C2F0E94C40E87C1112359F0F7
:101EF000093309F06EC1FFEF27EE83E0F150204077
:101F00008040E1F764C18C2F0E94CB0E76C18C2FEC
:101F100086958695837019F0813061F06EC1DD235E
:101F200021F0802F9C2F937002C080E090E00E94EF
:101F30006D0C6BC1DD2321F0802F9C2F937002C0AC
:101F400080E090E00E94830C60C1DD23F9F0053F42
:101F500051F0063F71F0043FA9F480917502909111
:101F6000760281600BC0809175029091760282604A
:101F700005C08091750290917602846090937602FC
:101F800080937502802F0E946E1C1EC0053F51F089
:101F9000063F71F0043FA9F480917502909176029A
:101FA0008E7F0BC080917502909176028D7F05C067
:101FB00080917502909176028B7F90937602809348
:101FC0007502802F0E94D61C0E945B1D1EC18C2FA3
:101FD000837009F045C0D11114C1402F4295469538
:101FE0004770440F440F602F6F70862F90E0A0E081
:101FF000B0E0042E04C0880F991FAA1FBB1F0A94CB
:10200000D2F704FF10C00FE010E020E030E004C081
:10201000000F111F221F331F4A95D2F7009510950C
:102020002095309503C000E010E09801C695C69554
:10203000C370BC01CD01602B712B822B932BC2305E
:1020400049F058F4C13019F00E949515DAC00E9489
:102050008315D7C00E94A715D4C00E948115D1C096
:10206000DD2319F08C2F817001C08695882309F437
:10207000C8C0402F429546954770440F440F602FCB
:102080006F70862F90E0A0E0B0E0042E04C0880FAF
:10209000991FAA1FBB1F0A94D2F704FF10C00FE0BC
:1020A00010E020E030E004C0000F111F221F331F9A
:1020B0004A95D2F7009510952095309503C000E021
:1020C00010E09801C695C695C370BC01CD01602B88
:1020D000712B822B932BC23049F058F4C13019F088
:1020E0000E945A168EC00E9448168BC00E946C1621
:1020F00088C00E94BB1585C0CF70DD2339F08C2FBE
:102100000E94E115802F0E94C40E7BC0802F0E9488
:10211000CB0E8C2F0E94021674C0023F01F128F4EE
:10212000003F41F0013FA1F03FC0033FF9F0043F01
:1021300039F13AC0DD2341F0153008F05EC08C2F34
:102140008F710E94271659C0163008F056C0F7CF7D
:10215000DD2339F08C2F8F710E94E1154EC0DD23F5
:10216000C9F38C2F8F710E94021647C0DD2329F01E
:102170008C2F8F710E94CC1540C00E94C7153DC0A6
:10218000DD2349F0CF718C2F0E94E11563E08C2F85
:102190000E94DA1732C081E00E94EF17123068F116
:1021A00082E00E94EF1729C0DD2331F0112391F264
:1021B000802F0E949F0D21C0112399F2093349F409
:1021C0009FEFE7EEF3E09150E040F040E1F700C010
:1021D0000000802F0E94490E10C04C2F4F70602FBE
:1021E000C7010E94E4060E94F2140FC04C2F4F70EA
:1021F000602FC7010E94E70608C088EF8C0D84306D
:1022000020F40E94390C0E948E06DD20C9F00E9445
:102210004C1780FD15C0F70112820E9446170E94DC
:10222000E115C7010E9441110E944617DF91CF912D
:102230001F910F91FF90EF90DF90CF900C940216BA
:10224000DF91CF911F910F91FF90EF90DF90CF9092
:1022500008950F931F93CF93DF93EC0168817981E9
:102260008A810E9423178C010E947E160E946F159E
:10227000B801CE010E94D20EDF91CF911F910F9134
:102280000895CF93DF93EC01988189812B813C8164
:10229000232B31F08F3F31F481E09F3F19F403C0CD
:1022A00081E001C080E080FD19C0CE010E94A70638
:1022B00081110CC00E945017882381F08A818823E5
:1022C00069F082E0DF91CF910C94EF17CE010E946C
:1022D0002911CE01DF91CF910C940C06DF91CF91A3
:1022E00008950E9477170E9487170E94A5170E94E1
:1022F000851E0E945B1D80E090E00E946D0C80E0D6
:1023000090E00C94830C80910001909101010E9457
:1023100065190C9471110E9467170C948311E92FB1
:10232000E295EF704E2F50E0FA013297EE30F10552
:10233000B0F4EA59FF4F0C94A225803F91F018F4B5
:10234000883E68F40EC0843F51F40BC0883E48F0CC
:10235000813F29F406C093FB882780F9089580E027
:10236000089581E008950E9418170E948F11089522
:10237000CF93DF9300D000D01F92CDB7DEB70F9080
:102380000F900F900F900F90DF91CF910895CF9302
:10239000DF9300D000D000D0CDB7DEB726960FB6C1
:1023A000F894DEBF0FBECDBFDF91CF9108951F938C
:1023B000CF93DF93C091A10116E08091A201C817CD
:1023C00099F0D0E01C9FF0011D9FF00D1124ED55F8
:1023D000FE4F4081518162817381848195810E9489
:1023E000C7112196C770E9CFDF91CF911F91089552
:1023F0004091D3015091D4016091D5017091D601E3
:102400008091D7019091D8010C94C7110F931F931D
:10241000CF93DF938091D80182958F7009F05DC0D2
:102420008091D501882309F458C08091A1011091B1
:10243000A2016091D3017091D401C091D601D091D5
:10244000D70191E06F3F09F090E0292F06E0811756
:1024500009F443C0209721F07F3F21F030E003C012
:1024600031E001C0322F90E030FD34C0089FF00110
:10247000099FF00D1124DF01AD55BE4F11963C911F
:102480001197371327C03C91361324C012963C9104
:10249000129731111FC013964D915C9114974C1BEC
:1024A0005D0B483C5105B0F48091D8018F7080617C
:1024B0008093D801E855FE4F80818F7080618083C2
:1024C00083ED91E00E944111DF91CF911F910F9117
:1024D0000C94D71101968770BACFDF91CF911F91DD
:1024E0000F9108959F92AF92BF92CF92DF92EF9299
:1024F000FF920F931F93CF93DF93CDB7DEB7619712
:102500000FB6F894DEBF0FBECDBF8C0185E0F80199
:10251000DE011D9601900D928A95E1F7F801408148
:102520005181E2809091D3016091D4012091D60134
:102530003091D7012115310531F06F3F31F481E041
:102540009F3F19F403C081E001C080E0F82FF170D3
:102550009F2E80FD46C1F801A380B48083EDC82E74
:1025600081E0D82EF090D501F501E21BF30BFF209E
:1025700009F4DFC08091D801E83CF10508F09BC068
:10258000282F207F09F052C0561313C0491311C0E1
:10259000FE2CE1100EC08F7080618093D8010E94E4
:1025A000F811C6010E9441118091D801F80185837C
:1025B00058C1AB2831F05F3F31F481E04F3F19F44F
:1025C00003C081E001C080E080FD03C081E08E2572
:1025D00002C080E090E0F82FF170FF2E80FF1CC059
:1025E0008091A1012091A20136E0821709F417C160
:1025F00090E0389FF001399FF00D1124ED55FE4F0A
:102600006181561306C06081461303C06281E612E1
:1026100003C001968770E9CFFE2CEE2009F421C19A
:102620008091D80181608093D8015AC0561306C0AA
:10263000491304C0E11002C0F8019FC04D875E87B6
:102640008D859E850E94B311882379F1EE2069F172
:102650002091D801822F82958F7090E0029774F0BC
:102660008091D3019091D40198878F831986BB867E
:10267000AA862C87CE0107960E94411186E0F801B8
:10268000A3EDB1E001900D928A95E1F70E94061248
:102690000E94F8110DC0561729F14D875E878D8570
:1026A0009E850E94B31181112CC0C8010E94411166
:1026B000FF24F394D6C0282F207F69F77A2DB98A9A
:1026C000A88A6E2D89890E94B81183ED91E00E943D
:1026D000411186E0F60111928A95E9F70E94F811FE
:1026E000F12CBFC04913D9CFE110D7CFF8018583B2
:1026F000C8010E94411186E0F60111928A95E9F71E
:10270000B0C0EE2091F22091D801822F82958F7077
:1027100090E002970CF4B2CF8091D3019091D40154
:102720009A8389831B82BD82AC822E83CE0101965F
:10273000A3CFE83CF10508F047C0FE2CEE2009F4D9
:10274000B4CF561330C049132EC02091D80120FDBC
:1027500021C0822F82958F70482F50E0411551057E
:10276000C9F0F80125834F30510541F08F5F982F54
:102770009295907F822F8F70892B8583C8010E944C
:10278000411186E0F801A3EDB1E001900D928A9528
:10279000E1F742C086E0F801A3EDB1E001900D92AF
:1027A0008A95E1F75EC04D875E878D859E850E9484
:1027B000B311811163CF8091D80181608093D801DA
:1027C000C8010E9441114DC07A2DB98AA88A6E2D88
:1027D00089890E94B81186E0F60111928A95E9F77D
:1027E0001BC0EE2009F461CF4D875E878D859E85E5
:1027F0000E94B311F82E882309F457CF86E0F80120
:10280000A3EDB1E001900D928A95E1F783ED91E09F
:102810000E94990D0E9406120E94F81122C04D8755
:102820005E878D859E850E941817292F22952F700F
:10283000223028F49F7039F0811105C00BC024307C
:1028400028F49F7049F4805E883020F0C8010E940F
:1028500041119F2CF92C05C0F8019581907F99F7C3
:10286000F9CF8F2D61960FB6F894DEBF0FBECDBFA6
:10287000DF91CF911F910F91FF90EF90DF90CF905C
:10288000BF90AF909F9008951F93CF93DF93CDB7E4
:10289000DEB72C970FB6F894DEBF0FBECDBF4F83C7
:1028A000588769877A878B879C87CE0107960E9415
:1028B00072128823D1F09F8188852A853B85232B3E
:1028C00031F08F3F31F481E09F3F19F403C081E084
:1028D00001C080E080FD47C04F81588569857A85B9
:1028E0008B859C850E94C7113EC086E0FE0137960D
:1028F000DE01119601900D928A95E1F7FF81E8853E
:102900006A857B856115710531F0EF3F31F481E017
:10291000FF3F19F403C081E001C080E080FD23C0C7
:102920002091A20130E0C90101968770992740915A
:10293000A10150E084179507F1F1F983EA837D83C3
:102940006C8396E0929FD001939FB00D1124AD55FA
:10295000BE4FFE01319601900D929A95E1F780935A
:10296000A2010E94D71116E08091A1019091A201CD
:10297000891771F1189FC00111248D559E4F0E9437
:102980007212882329F1E091A1011E9FF001112408
:10299000ED55FE4F40815181628173818481958123
:1029A0000E94C7118091A10190E00196877099273C
:1029B0008093A101D9CF0E948B111092A201109295
:1029C000A101E3EDF1E086E0DF011D928A95E9F7D0
:1029D0002C960FB6F894DEBF0FBECDBFDF91CF911E
:1029E0001F910895EF92FF920F931F93CF93DF9360
:1029F0008C01892B09F46CC0F12CEE24E394E801DE
:102A00002196F8018491843740F4843008F051C055
:102A1000813081F0823019F15BC0853709F444C000
:102A2000A8F19CE7980F903708F052C08F770E946A
:102A3000490E41C00E5F1F4FFE01849190E2980F36
:102A4000983050F48770FE2D01C0FF0F8A95EAF789
:102A50008F2F0E947A1714C00E949F0D2DC00E5F09
:102A60001F4FFE01849190E2980F983060F48770B8
:102A7000FE2D01C0FF0F8A95EAF78F2F0E94801765
:102A80000E94A51719C00E94490E16C00E5F1F4F65
:102A9000FE01C491CC2381F08FE99FE00197F1F70B
:102AA00000C00000C150F6CF0E5F1F4FFE01F49032
:102AB00003C00E949F0D8E018F2D882309F49FCFA4
:102AC000EFE9FFE03197F1F700C000008150F5CF4A
:102AD000DF91CF911F910F91FF90EF90089508958E
:102AE00008950C9470150C9471150E9473156093E1
:102AF00005027093060280930702909308020C94DB
:102B000071110C9475150F931F930091050210918C
:102B100006022091070230910802602B712B822B54
:102B2000932B1F910F910C9475150F931F93009188
:102B300005021091060220910702309108026023DD
:102B40007123822393231F910F910C9475150F937A
:102B50001F93009105021091060220910702309107
:102B6000080260277127822793271F910F910C94E9
:102B700075150C9470150E94B9156093010270933D
:102B8000020280930302909304020C94711160E09E
:102B900070E0CB010C94BB150F931F9341E050E004
:102BA00060E070E08A019B0104C0000F111F221F2A
:102BB000331F8A95D2F7C901B8011F910F910C9468
:102BC000BB150F931F9341E050E060E070E004C03C
:102BD000440F551F661F771F8A95D2F78091010217
:102BE00090910202A0910302B09104028A019B011C
:102BF000082B192B2A2B3B2BC901B8011F910F91D0
:102C00000C94BB150F931F9341E050E060E070E01F
:102C100004C0440F551F661F771F8A95D2F7409551
:102C20005095609570958091010290910202A0915B
:102C30000302B09104028A019B01082319232A236D
:102C40003B23C901B8011F910F910C94BB150F9341
:102C50001F9341E050E060E070E004C0440F551F56
:102C6000661F771F8A95D2F7809101029091020228
:102C7000A0910302B09104028A019B010827192741
:102C80002A273B27C901B8011F910F910C94BB154E
:102C90000F931F93009101021091020220910302F1
:102CA00030910402602B712B822B932B1F910F917B
:102CB0000C94BB150F931F93009101021091020217
:102CC0002091030230910402602371238223932315
:102CD0001F910F910C94BB150F931F93009101024C
:102CE00010910202209103023091040260277127A3
:102CF000822793271F910F910C94BB1508952CE008
:102D0000929F800D1124E82FE695E695E695877051
:102D100051E001C0550F8A95EAF785E0E89FF00180
:102D20001124E752FE4F20E030E070E04081CB01FB
:102D3000022E02C0969587950A94E2F781708195DC
:102D400084278523842781932F5F3F4F25303105CA
:102D500069F708952CE0929F800D1124682F6695E5
:102D600066956695982F977085E0689FB00111244D
:102D700040E050E080E0FB01E40FF51FE752FE4F1A
:102D8000208130E0092E02C0369527950A94E2F79B
:102D900021703327042E01C0220F0A94EAF7822BF8
:102DA0004F5F5F4F4530510531F70895BF92CF9285
:102DB000DF92EF92FF920F931F93CF93DF938C01DB
:102DC000C0900102D0900202E0900302F090040251
:102DD0008091050290910602A0910702B09108022D
:102DE000C82AD92AEA2AFB2ACFE1D0E0D701C601B6
:102DF0000C2E04C0B695A795979587950A94D2F79F
:102E000080FD04C0219790F7B12C07C0BC2EB801FB
:102E10008C2F0E9403070197A9F38B2DDF91CF918F
:102E20001F910F91FF90EF90DF90CF90BF9008958A
:102E3000CF93DF93EC010E94D616BE010E940307D8
:102E4000DF91CF9108951F93CF93DF93EB01909182
:102E5000A001992321F0CB010E94181713C08823E9
:102E600049F0CB010E94D616182F682FCE010E9480
:102E70007F1604C0CB010E94AA16182FBE01812F15
:102E80000E940307DF91CF911F910895809109025D
:102E90008595859585950895809109028770089597
:102EA00090910902977081E009F480E00895809183
:102EB0002D02089590912D02892B80932D02089563
:102EC000809590912D02892380932D020895109270
:102ED0002D02089590912C02892B80932C02089545
:102EE000809590912C02892380932C020895109252
:102EF0002C02089590912B02892B80932B02089528
:102F0000809590912B02892380932B020895109233
:102F10002B02089580910A02089508950C948D174C
:102F20000C948E1790910A02981721F080930A0250
:102F30000C949017089580910A02882329F010922A
:102F40000A0280E00C9490170895E0910001F0913E
:102F5000010180912D028083E0910001F091010137
:102F6000908180912C02892B8083E0910001F09167
:102F70000101908180912B02892B808380910A022C
:102F8000882381F0E0910001F09101019081892B6B
:102F9000808380910001909101010E94B9188111F4
:102FA0000E949B1780910001909101010C94450CA7
:102FB0000C948D1798E0899F90011124262B209363
:102FC00009020E94E11580910902859585958595F4
:102FD0000C94D8171092090280E00C94D817209115
:102FE00009028095822380930902982F977079F4C3
:102FF00030E0482F082E000C550B2417350739F008
:103000008595859585950E9402160C94EA1708957A
:1030100080E090E00E94C42521E08C3E9E4F09F0A4
:1030200020E0822F089582E090E00C94BC25682F68
:1030300082E090E00C94CA2583E090E00C94BC25DB
:10304000682F83E090E00C94CA25CF9384E090E051
:103050000E94BC25C82F81E290E00E94BC252C2F45
:1030600030E0A901582BCA01CF910895CF93C92F01
:10307000682F84E090E00E94CA256C2F81E290E0E6
:10308000CF910C94CA25AB01BC018FE090E00C9469
:10309000DC25AB01BC0183E190E00C94DC2560E011
:1030A00070E0CB010C94491860E070E0CB010E9405
:1030B00043180C944F186CEE7EEF80E090E00E9475
:1030C000E82560E082E090E00E94CA2560E083E0AD
:1030D00090E00E94CA2510920502109206021092FA
:1030E00007021092080260E084E090E00E94CA2586
:1030F00060E081E290E00E94CA2560E085E090E017
:103100000E94CA2560E086E090E00E94CA256FEF29
:1031100087E090E00E94CA2540E050E0BA0188E0D4
:1031200090E00E94DC2560E08DE090E00E94CA25DE
:1031300040E050E0BA0188E190E00E94DC2560E0C8
:1031400087E190E00E94CA2540E050E0BA018CE19E
:1031500090E00E94DC2560E080E290E00E94CA25B9
:103160000C9454180C945B18682F8EE090E00C942B
:10317000CA25FC01329680911401882331F0809198
:103180007B0287FF02C09EE101C096E080E0915083
:1031900028F021912223D9F38F5FF9CF0895662378
:1031A00051F1209114012223E9F020917B0227FFA5
:1031B00019C0462F4695469546954E31E0F4677006
:1031C00021E030E002C0220F331F6A95E2F7FC01D4
:1031D000E40FF11D828190E02823392381E0232B25
:1031E00069F409C0FC01329608962191621729F012
:1031F000E817F907D1F780E0089581E008959C0170
:10320000FC0132969FEF80E04191461789F09F3F85
:1032100019F4411101C0982F8F5F8630A9F79F3FA5
:1032200039F0F901E90FF11D97FDFA9562830895D0
:1032300008959C012A5F3F4FFC014281461301C063
:103240001282019682179307B9F70895262F2695C3
:10325000269526952E3168F4FC01E20FF11D67706A
:1032600021E030E001C0220F6A95EAF78281282B25
:1032700022830895262F2695269526952E3170F4C3
:10328000FC01E20FF11D677021E030E001C0220F68
:103290006A95EAF720958281282322830895209158
:1032A0001401222329F020917B0227FD0C9426197A
:1032B0000C94FF1820911401222329F020917B0205
:1032C00027FD0C943A190C94191920911401FC0152
:1032D0003296222331F080917B0287FF02C08EE17B
:1032E00001C086E0DF011D928A95E9F708950895EF
:1032F0000C9477190C947719CF930E947A190E9435
:103300005B090E947819C0E08C2F0E94F208892B7B
:1033100029F4CF5FC530C1F780E001C081E0CF91D3
:1033200008950C9477190C9491190E949319809127
:103330008102843049F110922F0220E488E190E06C
:103340000FB6F894A895809360000FBE209360009C
:1033500080E00E948E060E94931983B7817F84606B
:1033600083BF83B7816083BF7894889583B78E7F4E
:1033700083BF0FB6F894A895809160008861809310
:103380006000109260000FBE08950C9477190E949F
:103390008B110E94390C0E948E060C94C5191F9245
:1033A0000F920FB60F9211248F939F93AF93BF93F9
:1033B00080912F02811113C0809177029091780241
:1033C000A0917902B0917A024196A11DB11D80931E
:1033D000770290937802A0937902B0937A02BF911A
:1033E000AF919F918F910F900FBE0F901F901895E6
:1033F00082E084BD93E095BD9AEF97BD80936E0007
:1034000008952FB7F8948091770290917802A09157
:103410007902B0917A022FBF08959C014FB7F894BA
:103420008091770290917802A0917902B0917A020E
:103430004FBF821B930B089578941F920F920FB683
:103440000F9211248F939F93AF93BF938091770234
:1034500090917802A0917902B0917A020196A11D13
:10346000B11D8093770290937802A0937902B09374
:103470007A02BF91AF919F918F910F900FBE0F90E5
:103480001F90189581E08093E00080E28093D8003F
:103490001092C9008FE19EE40197F1F700C000008F
:1034A00087E090EBDC0180938A0290938B02A093DB
:1034B0008C02B0938D029CE088E10FB6F894A89539
:1034C000809360000FBE90936000FFCFAF92BF92D9
:1034D000CF92DF92EF92FF920F931F93CF93C0E0B2
:1034E000CC24C394D12CE82EF12C8C2F0E94F2080E
:1034F0005C0100E010E0C601002E02C0880F991F99
:103500000A94E2F78A219B21892B31F40F5F1F4F28
:103510000C30110581F70AC0602F7C2F80E00E94DB
:10352000E806E816F90691F781E004C0CF5FC530E0
:10353000E1F680E0CF911F910F91FF90EF90DF9027
:10354000CF90BF90AF900895CF93C82F8CE20E9488
:10355000661A882321F08C2FCF910C94661A80E094
:10356000CF910895CF930E940818811102C00E9444
:10357000B218C5E6C15049F00E945B098FE39CE98F
:103580000197F1F700C00000F5CF89E20E94A41A6C
:10359000811120C18AE20E94A41A81110E94B218EE
:1035A00085E00E94A41A81110E94421A0E941318F9
:1035B00080932E0287E00E94A41A8823A9F18BE150
:1035C0000E94A41A882351F080912E0281FB2227A9
:1035D00020F991E0922790FB81F90EC08EE00E94C5
:1035E000A41A882361F080912E0282FB222720F901
:1035F00091E0922790FB82F980932E0215C080E122
:103600000E94A41A90912E02882341F093FB222756
:1036100020F981E0822780FB93F904C0892F8095EF
:1036200080FB90F990932E0280912E020E94171831
:103630000E94251890937C0280937B0280EE0E946A
:10364000A41A882341F080917B02982F909590FBDB
:1036500080F980937B0289E30E94A41A882359F0A1
:1036600080917B0281FB222720F991E0922790FB39
:1036700081F980937B0282EE0E94A41A882359F07C
:1036800080917B0282FB222720F991E0922790FB18
:1036900082F980937B0286EE0E94A41A882359F057
:1036A00080917B0283FB222720F991E0922790FBF7
:1036B00083F980937B0283EE0E94A41A882359F039
:1036C00080917B0284FB222720F991E0922790FBD6
:1036D00084F980937B0285E30E94A41A882359F021
:1036E00080917B0285FB222720F991E0922790FBB5
:1036F00085F980937B0281E30E94A41A882359F004
:1037000080917B0286FB222720F991E0922790FB93
:1037100086F980937B0281E10E94A41A882359F0E4
:1037200080917B0287FB222720F991E0922790FB72
:1037300087F980937B0280917B0290917C020E94AA
:10374000361887E20E94A41AC82F8EE10E94A41A9C
:103750008111C2608FE10E94A41A8111C46080E2CD
:103760000E94A41A8111C86081E20E94A41A8111EA
:10377000C06182E20E94A41A8111C06283E20E94A9
:10378000A41A8111C06484E20E94A41A882311F053
:10379000C06802C0CC2329F08C2F0E9420186C2F07
:1037A00003C00E941C18682F70E080E090E00E9427
:1037B00081158FE00E94A41A882319F081E00E94ED
:1037C000B41885E10E94A41A882321F080E0CF91EB
:1037D0000C94B418CF9108958091370280FF0BC0EC
:1037E0006091070185E0689FB00111247595679588
:1037F000759567952BC081FF09C06091070185E031
:10380000689FB00111247595679520C082FF07C09D
:103810006091070185E0689FB001112417C0909165
:1038200036029923D1F060910601961788F720910E
:10383000070185E0289F90011124929FA001939F8A
:10384000500D112470E0CA010E948E256038710568
:1038500040F46115710519F406C065E070E0862F2B
:1038600008958FE7089581E008958091370280FFE1
:1038700008C06091030170E075956795759567952F
:1038800021C081FF06C06091030170E075956795C6
:1038900019C082FF04C06091030170E010C09091D4
:1038A0003602992399F0609102019617A0F7809152
:1038B0000301899FC001112470E00E948E256038A9
:1038C000710540F46115710519F406C061E070E0FE
:1038D000862F08958FE7089581E00895803F21F4B1
:1038E0000E94EC1B819504C0813F29F40E94EC1BCF
:1038F00080933B020895823F21F40E94EC1B819546
:1039000004C0833F29F40E94EC1B80933A0208957F
:10391000893F19F40E94351C05C08A3F31F40E948A
:10392000351C819580933C0208958B3F21F40E94C1
:10393000351C819504C08C3F29F40E94351C80936E
:103940003D020895843F21F480913902816017C0BF
:10395000853F21F480913902826011C0863F21F4B5
:103960008091390284600BC0873F21F48091390235
:10397000886005C0883F31F480913902806180936E
:10398000390208958D3F21F48091370281600BC088
:103990008E3F21F480913702826005C08F3F29F469
:1039A000809137028460809337020895803F39F414
:1039B00080913B0287FF6CC010923B0269C0813F3F
:1039C00029F480913B021816BCF362C090913A0230
:1039D000823F29F497FF5CC010923A0259C0833F9E
:1039E00019F41916CCF354C0893F41F480913C027C
:1039F00018160CF04DC010923C024AC08A3F29F4C0
:103A000080913C0287FF44C0F6CF8B3F39F4809110
:103A10003D0287FF3DC010923D023AC08C3F29F421
:103A200080913D021816BCF333C0843F21F480918D
:103A300039028E7F17C0853F21F4809139028D7F36
:103A400011C0863F21F4809139028B7F0BC0873FE4
:103A500021F480913902877F05C0883F31F480913D
:103A600039028F7E8093390213C08D3F21F48091FB
:103A700037028E7F0BC08E3F21F4809137028D7FFD
:103A800005C08F3F29F4809137028B7F80933702E6
:103A900080913A0281110EC080913B0281110AC0CF
:103AA00080913C02811106C080913D02811102C0CB
:103AB00010923602089588E392E00E945F0C0E9403
:103AC000011A90933502809334020895CF93DF93C7
:103AD00000D000D000D0CDB7DEB786E0E8E3F2E05A
:103AE000DE01119601900D928A95E1F780913A02DC
:103AF000811105C080913B02882309F47AC080912E
:103B00003202909133020E940D1AAC01909136025C
:103B1000992339F02091080130E02417350758F037
:103B200068C0209109018AE0289F90011124241780
:103B3000350718F05EC09F3F19F09F5F90933602E3
:103B400010923C0210923D0280913A02181624F421
:103B50000E94EC1B80933A0280913A0287FF05C0D5
:103B60000E94EC1B819580933A0280913B021816CB
:103B700024F40E94EC1B80933B0280913B0287FF60
:103B800005C00E94EC1B819580933B0230913A0264
:103B90003323E1F020913B022223C1F045EB3403B3
:103BA000C0011124992319F090933A0203C081E0D7
:103BB00080933A0235EB2303C0011124992319F0B5
:103BC00090933B0203C081E080933B020E945B1D07
:103BD00080913402909135029093330280933202A7
:103BE00086E0FE013196A8E3B2E001900D928A953D
:103BF000E1F780913C02811105C080913D0288234C
:103C000009F47AC080913002909131020E940D1A1D
:103C1000AC0190913602992339F02091040130E0F3
:103C20002417350758F068C0209105018AE0289FC5
:103C3000900111242417350718F05EC09F3F19F03A
:103C40009F5F9093360210923A0210923B0280914D
:103C50003C02181624F40E94351C80933C0280918B
:103C60003C0287FF05C00E94351C819580933C0271
:103C700080913D02181624F40E94351C80933D0269
:103C800080913D0287FF05C00E94351C819580937D
:103C90003D0230913C023323E1F020913D0222238A
:103CA000C1F045EB3403C0011124992319F090931E
:103CB0003C0203C081E080933C0235EB2303C0014A
:103CC0001124992319F090933D0203C081E0809361
:103CD0003D020E945B1D80913402909135029093C9
:103CE00031028093300286E0FE013196A8E3B2E013
:103CF00001900D928A95E1F726960FB6F894DEBFF3
:103D00000FBECDBFDF91CF910895E8E3F2E086E0EA
:103D1000DF011D928A95E9F7109236021092370260
:103D2000089580915E020895CF93DF9300D01F9293
:103D3000CDB7DEB790918102943019F589837B83EA
:103D40006A8382E08093E9008FEF9091E8008150D0
:103D500095FD06C095ED9A95F1F700008111F5CF1C
:103D60008091E80085FF0DC040E050E063E070E026
:103D7000CE0101960E94F0208091E8008E7780931A
:103D8000E8000F900F900F90DF91CF910895CF939F
:103D9000DF93EC010E94D320823011F0843031F4A3
:103DA000BE0184E0DF91CF910C94941EDF91CF91FE
:103DB0000895BC0183E00C94941ECF93DF93EC0133
:103DC0000E94D320823011F08430F9F482E0809395
:103DD000E9008FEF9091E800815095FD06C095EDC8
:103DE0009A95F1F700008111F5CF8091E80085FFE9
:103DF0000CC040E050E066E070E0CE010E94F02090
:103E00008091E8008E778093E800DF91CF9108954C
:103E1000CF93DF93EC010E94D320823011F08430E5
:103E2000D9F580911401882339F080917B0287FFB6
:103E300003C060E282E002C068E081E08093E900B4
:103E40008FEF9091E800815095FD06C095ED9A9511
:103E5000F1F700008111F5CF8091E80085FF1CC0CB
:103E600080911401811105C040E050E068E070E0ED
:103E700003C070E040E050E0CE010E94F02080914D
:103E8000E8008E778093E80080E2FE01AEE3B2E0C6
:103E900001900D928A95E1F7DF91CF91089580917D
:103EA0008002811109C00E9481220E94DE2280913D
:103EB000E20084608093E2000895109280020895E9
:103EC000089508950C94C71942E061EC81E00E94C6
:103ED000FA2142E261EC82E00C94FA2180918302A3
:103EE000833009F460C030F4813071F0823009F41D
:103EF00099C008958A3009F485C08B3009F46BC0ED
:103F0000893009F0A7C020C080918202813A09F06F
:103F1000A1C08091E800877F8093E80080918602AD
:103F200090918702892B21F460E28EE392E003C036
:103F300060E080E090E070E00E943B218091E8002A
:103F40008B778093E800089580918202813209F096
:103F500081C08091860290918702029708F07AC012
:103F60008091E800877F8093E8008091E80082FDDF
:103F700005C0809181028111F8CF6CC02091F300BF
:103F80008091F20090E0922B029729F48091F10049
:103F90008B7F813021F48091F10080935E028091CB
:103FA000E8008B7753C080918202813A09F052C0B9
:103FB0008091860290918702892B09F04BC08091F5
:103FC000E800877F8093E8008091E80080FFFCCFC5
:103FD0008091140136C0809182028132D9F580919E
:103FE000860290918702892BA9F58091E800877F4E
:103FF0008093E8000E942F22809184028093140114
:104000000C948B1180918202813221F58091E8001D
:10401000877F8093E8000E942F2280918502809301
:104020005F02089580918202813AA1F48091E800B4
:10403000877F8093E8008091E80080FFFCCF80912B
:104040005F028093F1008091E8008E778093E80012
:104050000C942F22089584B7877F84BF0FB6F894FD
:10406000A895809160008861809360001092600044
:104070000FBE90E080E80FB6F894809361009093B3
:1040800061000FBE0E94A90C0E9481220E94DE22C4
:104090008091E20084608093E20078940E9473250E
:1040A0000E94B30C8AE091E00E94340C809181025E
:1040B000853069F40E94951980917F028823B1F3BD
:1040C0000E947C19882391F30E94DA20EFCF0E948E
:1040D000BB0CECCF0C946C20292F332723303105F7
:1040E000C9F060F42130310581F02230310509F04A
:1040F0004AC08BE390E02CE139E049C02132310520
:1041000011F12232310579F13EC082E190E027E5DC
:1041100039E03DC099278130910561F040F082304F
:10412000910559F0039779F5E4EFF8E008C0E8E16C
:10413000F9E005C0ECE0F9E002C0EAEFF8E08491B4
:1041400090E09F0124C06115710541F06130710557
:10415000D1F489E090E027E439E019C089E090E0EB
:104160002EE239E014C06115710541F0613071052E
:1041700051F48CEB90E029E639E009C080E490E04E
:1041800025E23AE004C080E090E020E030E0FA016F
:1041900031832083089580918102843011F081E081
:1041A000089582E0089580916002811102C00C940C
:1041B000CB20089580E189BD82E189BD09B400FE6C
:1041C000FDCF8091D8008F7D8093D8008091E00052
:1041D00082608093E0008091E00081FDFCCF089533
:1041E000CF92DF92EF92FF920F931F93CF93DF93C3
:1041F000EC018B017A010E944E22811133C0E1143F
:10420000F10439F0F70180819181081B190BC80F67
:10421000D91FC12CD12C0115110519F18091E8008D
:1042200085FD16C08091E8008E778093E800E11448
:10423000F10449F0F70180819181C80ED91ED18225
:10424000C08285E00FC00E944E22882321F30AC05D
:1042500089918093F10001501109FFEFCF1ADF0A15
:10426000DACF80E0DF91CF911F910F91FF90EF9017
:10427000DF90CF900895209188023091890226170F
:10428000370748F06115710539F42091E8002E7761
:104290002093E80001C0B901FC0120E0611571051F
:1042A00079F1809181028823F1F18530F1F18091DB
:1042B000E80083FD3CC08091E80082FD2EC0809123
:1042C000E80080FFEBCF2091F3008091F20090E0B6
:1042D000922B6115710551F08830910538F42191C8
:1042E0002093F100615071090196F3CF21E0089706
:1042F00009F020E08091E8008E778093E800CECF2F
:104300002111CFCF0AC080918102882361F08530CE
:1043100061F08091E80083FD0AC08091E80082FF8F
:10432000F2CF80E0089582E0089583E0089581E06F
:10433000089520918802309189022617370748F0A6
:104340006115710539F42091E8002E772093E8007B
:1043500001C0B901FC0120E06115710591F1809166
:104360008102882309F440C0853009F43FC0809160
:10437000E80083FD3DC08091E80082FD2FC0809160
:10438000E80080FFE9CF2091F3008091F20090E0F7
:10439000922B6115710559F08830910540F42491F4
:1043A0002093F1003196615071090196F2CF21E01E
:1043B000089709F020E08091E8008E778093E8006C
:1043C000CBCF2111CCCF0AC080918102882361F02C
:1043D000853061F08091E80083FD0AC08091E8009B
:1043E00082FFF2CF80E0089582E0089583E008958F
:1043F00081E00895982F973068F59093E900981719
:1044000039F07091EC002091ED005091F00003C064
:10441000242F762F50E021FD02C09F5FECCF30911A
:10442000EB003E7F3093EB003091ED003D7F309309
:10443000ED003091EB0031603093EB007093EC00B5
:104440002093ED005093F0002091EE0027FDE5CF82
:1044500080E008958F708093E90081E00895809155
:10446000820287FF11C08091E80082FD05C0809123
:1044700081028111F8CF11C08091E8008B770BC0C9
:1044800080918102882349F08091E80080FFF8CF75
:104490008091E8008E778093E80008952091E400F1
:1044A0003091E50095E64091EC00842F817040FF4B
:1044B00023C08091E80080FD1DC080918102882387
:1044C00099F0853099F08091EB0085FD11C0409105
:1044D000E4005091E5002417350729F3915011F0BD
:1044E0009A01E1CF84E0089582E0089583E0089581
:1044F00081E0089580E008954091E80042FFDDCF1B
:1045000008950E94EF220E94F722E0EEF0E0808101
:1045100081608083E8EDF0E080818F77808319BC33
:10452000A7EDB0E08C918E7F8C9380818F7E80830D
:104530001092800208950F931F93CF93DF930E94F0
:10454000EF220E94F722C8EDD0E088818F77888320
:1045500088818068888388818F7D888319BC1092C8
:10456000810210927D0210927F0210927E0200EE74
:1045700010E0F80180818B7F80838881816088834F
:1045800042E060E080E00E94FA21E1EEF0E080810C
:104590008E7F8083E2EEF0E0808181608083808185
:1045A00088608083F80180818E7F8083888180612C
:1045B0008883DF91CF911F910F910895E8EDF0E08E
:1045C00080818F7E8083E7EDF0E080818160808351
:1045D00084E082BF81E0809380020C949B22E8ED0E
:1045E000F0E080818E7F80831092E2000895109227
:1045F000DA001092E10008951F920F920FB60F9209
:1046000011242F933F934F935F936F937F938F93D7
:104610009F93AF93BF93EF93FF938091E10082FF4D
:104620000BC08091E20082FF07C08091E1008B7F88
:104630008093E1000E9472258091DA0080FF1FC004
:104640008091D80080FF1BC08091DA008E7F80931C
:10465000DA008091D90080FF0DC080E189BD82E140
:1046600089BD09B400FEFDCF81E0809381020E94E4
:104670004F1F05C019BC109281020E945D1F8091DE
:10468000E10080FF19C08091E20080FF15C0809199
:10469000E2008E7F8093E2008091E200806180934F
:1046A000E2008091D80080628093D80019BC85E038
:1046B000809381020E94611F8091E10084FF30C0DD
:1046C0008091E20084FF2CC080E189BD82E189BD38
:1046D00009B400FEFDCF8091D8008F7D8093D80073
:1046E0008091E1008F7E8093E1008091E2008F7ED7
:1046F0008093E2008091E20081608093E2008091EB
:104700007D02882311F084E007C08091E30087FDDB
:1047100002C081E001C083E0809381020E94621F99
:104720008091E10083FF29C08091E20083FF25C0D2
:104730008091E100877F8093E10082E08093810295
:1047400010927D028091E1008E7F8093E100809144
:10475000E2008E7F8093E2008091E200806180938E
:10476000E20042E060E080E00E94FA218091F000E7
:1047700088608093F0000E94601FFF91EF91BF91CD
:10478000AF919F918F917F916F915F914F913F91E9
:104790002F910F900FBE0F901F9018951F920F92A0
:1047A0000FB60F9211242F933F934F935F936F9304
:1047B0007F938F939F93AF93BF93CF93DF93EF93A9
:1047C000FF93C091E900CF708091EC00D82FD17099
:1047D00080FDD0E81092E9008091F000877F8093FF
:1047E000F00078940E9412241092E9008091F00069
:1047F00088608093F000CD2BCF70C093E900FF91CB
:10480000EF91DF91CF91BF91AF919F918F917F9168
:104810006F915F914F913F912F910F900FBE0F902D
:104820001F9018951F93CF93DF93CDB7DEB7AA974C
:104830000FB6F894DEBF0FBECDBFE2E8F2E0809184
:10484000F100819322E0EA38F207C9F70E946E1F57
:104850008091E80083FF2EC18091820290918302B3
:10486000492F50E04A30510508F024C1FA01EC58B4
:10487000FF4F0C94A225803821F0823809F01AC12C
:1048800008C080917E0290917F02992389F0826016
:104890000FC0809186028F70873008F00BC1809323
:1048A000E9008091EB0085FB882780F91092E900F0
:1048B0009091E800977F9093E8008093F100109228
:1048C000F100D1C0282F2D7F09F0F4C0882319F002
:1048D000823061F0EFC080918402813009F0EAC03B
:1048E000933009F080E080937F022EC08091840293
:1048F00081112AC0809186028F702FEF280F2630F9
:1049000008F0D8C08093E9002091EB0020FF1CC084
:10491000933021F48091EB00806214C09091EB0001
:1049200090619093EB0021E030E0A90102C0440FB8
:10493000551F8A95E2F74093EA001092EA008091B1
:10494000EB0088608093EB001092E9008091E80012
:10495000877F8093E8000E942F22ACC08111AAC0FB
:10496000109184021F778091E3008078812B8093DF
:10497000E3008091E800877F8093E8000E942F2267
:104980008091E80080FFFCCF8091E30080688093F5
:10499000E300111102C082E001C083E08093810234
:1049A00089C08058823008F085C08091840290913F
:1049B00085028C3D53E0950779F583E08A838AE28E
:1049C00089834FB7F894DE01139620E03EE051E270
:1049D000E32FF0E050935700E49120FF03C0E295ED
:1049E000EF703F5FEF708E2F90E0EA3010F0C796C7
:1049F00001C0C0968D939D932F5F243149F74FBF1F
:104A00008091E800877F8093E8006AE270E0CE0141
:104A100001960E943B2116C0609186027091870228
:104A2000AE014F5F5F4F0E946A20BC01892B09F4E1
:104A300041C09091E800977F9093E80089819A8126
:104A40000E9499218091E8008B778093E80032C022
:104A5000803881F58091E800877F8093E80080911D
:104A60007D028093F1008091E8008E7772CF8111F2
:104A700021C0809184029091850299270297D4F4F5
:104A80008091E800877F8093E80080918402809382
:104A90007D020E942F2280917D02811106C08091AB
:104AA000E30087FD02C081E001C084E080938102C1
:104AB0000E94641F8091E80083FF0AC08091E80093
:104AC000877F8093E8008091EB0080628093EB0009
:104AD000AA960FB6F894DEBF0FBECDBFDF91CF917F
:104AE0001F9108950895CF93809181028823A1F0AA
:104AF000C091E900CF709091EC00892F817090FDFA
:104B000080E8C82B1092E9008091E80083FD0E94A4
:104B10001224CF70C093E900CF91089597FB072E20
:104B200016F4009407D077FD09D00E94A82507FC51
:104B300005D03EF4909581959F4F089570956195AD
:104B40007F4F0895EE0FFF1F0590F491E02D09941B
:104B5000AA1BBB1B51E107C0AA1FBB1FA617B707A3
:104B600010F0A61BB70B881F991F5A95A9F78095BF
:104B70009095BC01CD010895F999FECF92BD81BDFC
:104B8000F89A992780B50895A8E1B0E042E050E096
:104B90000C94F025262FF999FECF92BD81BDF89A8D
:104BA000019700B4021639F01FBA20BD0FB6F89471
:104BB000FA9AF99A0FBE08950396272F0E94CB25E3
:104BC0000E94CA25252F0E94CB25242F0C94CB258B
:104BD0000196272F0E94CB250C94CA25DC01CB011E
:104BE000FC01F999FECF06C0F2BDE1BDF89A3196FD
:104BF00000B40D9241505040B8F70895F894FFCF9B
:104C00000B022808641E140A321E911E081FDD1EA6
:104C1000D91EC71E01E200E900EA00B500B600B7E0
:104C200000CD008301CC008A01920194012102236E
:104C30000224022502260227022A02B300B4006FD2
:104C400000700081828397C63435F4F5F6F731336E
:104C500032369392919094E200E900EA00B500B6F2
:104C600000B700CD008301CC008A0192019401219C
:104C700002230224022502260227022A02B300B4DC
:084C8000006F007000818283C7
:00000001FF
